{
  "abi": [
    {
      "inputs": [
        {
          "internalType": "string",
          "name": "_name",
          "type": "string"
        },
        {
          "internalType": "string",
          "name": "_symbol",
          "type": "string"
        },
        {
          "internalType": "string",
          "name": "_baseURI",
          "type": "string"
        },
        {
          "internalType": "bytes32",
          "name": "_hackerMerkleRoot",
          "type": "bytes32"
        },
        {
          "internalType": "bytes32",
          "name": "_generalMerkleRoot",
          "type": "bytes32"
        },
        {
          "internalType": "bytes32",
          "name": "_teamMerkleRoot",
          "type": "bytes32"
        },
        {
          "internalType": "bytes32",
          "name": "_speakerMerkleRoot",
          "type": "bytes32"
        }
      ],
      "stateMutability": "nonpayable",
      "type": "constructor"
    },
    {
      "anonymous": false,
      "inputs": [
        {
          "indexed": true,
          "internalType": "address",
          "name": "owner",
          "type": "address"
        },
        {
          "indexed": true,
          "internalType": "address",
          "name": "spender",
          "type": "address"
        },
        {
          "indexed": true,
          "internalType": "uint256",
          "name": "id",
          "type": "uint256"
        }
      ],
      "name": "Approval",
      "type": "event"
    },
    {
      "anonymous": false,
      "inputs": [
        {
          "indexed": true,
          "internalType": "address",
          "name": "owner",
          "type": "address"
        },
        {
          "indexed": true,
          "internalType": "address",
          "name": "operator",
          "type": "address"
        },
        {
          "indexed": false,
          "internalType": "bool",
          "name": "approved",
          "type": "bool"
        }
      ],
      "name": "ApprovalForAll",
      "type": "event"
    },
    {
      "anonymous": false,
      "inputs": [
        {
          "indexed": true,
          "internalType": "address",
          "name": "previousOwner",
          "type": "address"
        },
        {
          "indexed": true,
          "internalType": "address",
          "name": "newOwner",
          "type": "address"
        }
      ],
      "name": "OwnershipTransferred",
      "type": "event"
    },
    {
      "anonymous": false,
      "inputs": [
        {
          "indexed": true,
          "internalType": "address",
          "name": "from",
          "type": "address"
        },
        {
          "indexed": true,
          "internalType": "address",
          "name": "to",
          "type": "address"
        },
        {
          "indexed": true,
          "internalType": "uint256",
          "name": "id",
          "type": "uint256"
        }
      ],
      "name": "Transfer",
      "type": "event"
    },
    {
      "inputs": [
        {
          "internalType": "address",
          "name": "spender",
          "type": "address"
        },
        {
          "internalType": "uint256",
          "name": "id",
          "type": "uint256"
        }
      ],
      "name": "approve",
      "outputs": [],
      "stateMutability": "nonpayable",
      "type": "function"
    },
    {
      "inputs": [
        {
          "internalType": "address",
          "name": "owner",
          "type": "address"
        }
      ],
      "name": "balanceOf",
      "outputs": [
        {
          "internalType": "uint256",
          "name": "",
          "type": "uint256"
        }
      ],
      "stateMutability": "view",
      "type": "function"
    },
    {
      "inputs": [],
      "name": "baseURI",
      "outputs": [
        {
          "internalType": "string",
          "name": "",
          "type": "string"
        }
      ],
      "stateMutability": "view",
      "type": "function"
    },
    {
      "inputs": [
        {
          "internalType": "address",
          "name": "",
          "type": "address"
        }
      ],
      "name": "generalClaimed",
      "outputs": [
        {
          "internalType": "bool",
          "name": "",
          "type": "bool"
        }
      ],
      "stateMutability": "view",
      "type": "function"
    },
    {
      "inputs": [],
      "name": "generalMerkleRoot",
      "outputs": [
        {
          "internalType": "bytes32",
          "name": "",
          "type": "bytes32"
        }
      ],
      "stateMutability": "view",
      "type": "function"
    },
    {
      "inputs": [
        {
          "internalType": "bytes32[]",
          "name": "_generalProof",
          "type": "bytes32[]"
        },
        {
          "internalType": "string",
          "name": "email",
          "type": "string"
        }
      ],
      "name": "generalMint",
      "outputs": [],
      "stateMutability": "nonpayable",
      "type": "function"
    },
    {
      "inputs": [
        {
          "internalType": "uint256",
          "name": "",
          "type": "uint256"
        }
      ],
      "name": "getApproved",
      "outputs": [
        {
          "internalType": "address",
          "name": "",
          "type": "address"
        }
      ],
      "stateMutability": "view",
      "type": "function"
    },
    {
      "inputs": [
        {
          "internalType": "address",
          "name": "",
          "type": "address"
        }
      ],
      "name": "hackerClaimed",
      "outputs": [
        {
          "internalType": "bool",
          "name": "",
          "type": "bool"
        }
      ],
      "stateMutability": "view",
      "type": "function"
    },
    {
      "inputs": [],
      "name": "hackerMerkleRoot",
      "outputs": [
        {
          "internalType": "bytes32",
          "name": "",
          "type": "bytes32"
        }
      ],
      "stateMutability": "view",
      "type": "function"
    },
    {
      "inputs": [
        {
          "internalType": "bytes32[]",
          "name": "_hackerProof",
          "type": "bytes32[]"
        },
        {
          "internalType": "string",
          "name": "email",
          "type": "string"
        }
      ],
      "name": "hackerMint",
      "outputs": [],
      "stateMutability": "nonpayable",
      "type": "function"
    },
    {
      "inputs": [
        {
          "internalType": "address",
          "name": "",
          "type": "address"
        },
        {
          "internalType": "address",
          "name": "",
          "type": "address"
        }
      ],
      "name": "isApprovedForAll",
      "outputs": [
        {
          "internalType": "bool",
          "name": "",
          "type": "bool"
        }
      ],
      "stateMutability": "view",
      "type": "function"
    },
    {
      "inputs": [],
      "name": "name",
      "outputs": [
        {
          "internalType": "string",
          "name": "",
          "type": "string"
        }
      ],
      "stateMutability": "view",
      "type": "function"
    },
    {
      "inputs": [],
      "name": "owner",
      "outputs": [
        {
          "internalType": "address",
          "name": "",
          "type": "address"
        }
      ],
      "stateMutability": "view",
      "type": "function"
    },
    {
      "inputs": [
        {
          "internalType": "uint256",
          "name": "id",
          "type": "uint256"
        }
      ],
      "name": "ownerOf",
      "outputs": [
        {
          "internalType": "address",
          "name": "owner",
          "type": "address"
        }
      ],
      "stateMutability": "view",
      "type": "function"
    },
    {
      "inputs": [],
      "name": "renounceOwnership",
      "outputs": [],
      "stateMutability": "nonpayable",
      "type": "function"
    },
    {
      "inputs": [
        {
          "internalType": "address",
          "name": "from",
          "type": "address"
        },
        {
          "internalType": "address",
          "name": "to",
          "type": "address"
        },
        {
          "internalType": "uint256",
          "name": "id",
          "type": "uint256"
        }
      ],
      "name": "safeTransferFrom",
      "outputs": [],
      "stateMutability": "nonpayable",
      "type": "function"
    },
    {
      "inputs": [
        {
          "internalType": "address",
          "name": "from",
          "type": "address"
        },
        {
          "internalType": "address",
          "name": "to",
          "type": "address"
        },
        {
          "internalType": "uint256",
          "name": "id",
          "type": "uint256"
        },
        {
          "internalType": "bytes",
          "name": "data",
          "type": "bytes"
        }
      ],
      "name": "safeTransferFrom",
      "outputs": [],
      "stateMutability": "nonpayable",
      "type": "function"
    },
    {
      "inputs": [
        {
          "internalType": "address",
          "name": "operator",
          "type": "address"
        },
        {
          "internalType": "bool",
          "name": "approved",
          "type": "bool"
        }
      ],
      "name": "setApprovalForAll",
      "outputs": [],
      "stateMutability": "nonpayable",
      "type": "function"
    },
    {
      "inputs": [
        {
          "internalType": "string",
          "name": "_uri",
          "type": "string"
        }
      ],
      "name": "setBaseURI",
      "outputs": [],
      "stateMutability": "nonpayable",
      "type": "function"
    },
    {
      "inputs": [
        {
          "internalType": "bytes32",
          "name": "_hackerMerkleRoot",
          "type": "bytes32"
        },
        {
          "internalType": "bytes32",
          "name": "_generalMerkleRoot",
          "type": "bytes32"
        },
        {
          "internalType": "bytes32",
          "name": "_teamMerkleRoot",
          "type": "bytes32"
        },
        {
          "internalType": "bytes32",
          "name": "_speakerMerkleRoot",
          "type": "bytes32"
        }
      ],
      "name": "setMerkleRoots",
      "outputs": [],
      "stateMutability": "nonpayable",
      "type": "function"
    },
    {
      "inputs": [
        {
          "internalType": "address",
          "name": "",
          "type": "address"
        }
      ],
      "name": "speakerClaimed",
      "outputs": [
        {
          "internalType": "bool",
          "name": "",
          "type": "bool"
        }
      ],
      "stateMutability": "view",
      "type": "function"
    },
    {
      "inputs": [],
      "name": "speakerMerkleRoot",
      "outputs": [
        {
          "internalType": "bytes32",
          "name": "",
          "type": "bytes32"
        }
      ],
      "stateMutability": "view",
      "type": "function"
    },
    {
      "inputs": [
        {
          "internalType": "bytes32[]",
          "name": "_speakerProof",
          "type": "bytes32[]"
        },
        {
          "internalType": "string",
          "name": "email",
          "type": "string"
        }
      ],
      "name": "speakerMint",
      "outputs": [],
      "stateMutability": "nonpayable",
      "type": "function"
    },
    {
      "inputs": [
        {
          "internalType": "bytes4",
          "name": "interfaceId",
          "type": "bytes4"
        }
      ],
      "name": "supportsInterface",
      "outputs": [
        {
          "internalType": "bool",
          "name": "",
          "type": "bool"
        }
      ],
      "stateMutability": "view",
      "type": "function"
    },
    {
      "inputs": [],
      "name": "symbol",
      "outputs": [
        {
          "internalType": "string",
          "name": "",
          "type": "string"
        }
      ],
      "stateMutability": "view",
      "type": "function"
    },
    {
      "inputs": [
        {
          "internalType": "address",
          "name": "",
          "type": "address"
        }
      ],
      "name": "teamClaimed",
      "outputs": [
        {
          "internalType": "bool",
          "name": "",
          "type": "bool"
        }
      ],
      "stateMutability": "view",
      "type": "function"
    },
    {
      "inputs": [],
      "name": "teamMerkleRoot",
      "outputs": [
        {
          "internalType": "bytes32",
          "name": "",
          "type": "bytes32"
        }
      ],
      "stateMutability": "view",
      "type": "function"
    },
    {
      "inputs": [
        {
          "internalType": "bytes32[]",
          "name": "_teamProof",
          "type": "bytes32[]"
        },
        {
          "internalType": "string",
          "name": "email",
          "type": "string"
        }
      ],
      "name": "teamMint",
      "outputs": [],
      "stateMutability": "nonpayable",
      "type": "function"
    },
    {
      "inputs": [],
      "name": "tokenID",
      "outputs": [
        {
          "internalType": "uint256",
          "name": "",
          "type": "uint256"
        }
      ],
      "stateMutability": "view",
      "type": "function"
    },
    {
      "inputs": [
        {
          "internalType": "uint256",
          "name": "",
          "type": "uint256"
        }
      ],
      "name": "tokenOwner",
      "outputs": [
        {
          "internalType": "address",
          "name": "",
          "type": "address"
        }
      ],
      "stateMutability": "view",
      "type": "function"
    },
    {
      "inputs": [
        {
          "internalType": "uint256",
          "name": "",
          "type": "uint256"
        }
      ],
      "name": "tokenType",
      "outputs": [
        {
          "internalType": "enum Web3Atl.AttendeeTypes",
          "name": "",
          "type": "uint8"
        }
      ],
      "stateMutability": "view",
      "type": "function"
    },
    {
      "inputs": [
        {
          "internalType": "uint256",
          "name": "id",
          "type": "uint256"
        }
      ],
      "name": "tokenURI",
      "outputs": [
        {
          "internalType": "string",
          "name": "",
          "type": "string"
        }
      ],
      "stateMutability": "view",
      "type": "function"
    },
    {
      "inputs": [
        {
          "internalType": "address",
          "name": "from",
          "type": "address"
        },
        {
          "internalType": "address",
          "name": "to",
          "type": "address"
        },
        {
          "internalType": "uint256",
          "name": "id",
          "type": "uint256"
        }
      ],
      "name": "transferFrom",
      "outputs": [],
      "stateMutability": "nonpayable",
      "type": "function"
    },
    {
      "inputs": [
        {
          "internalType": "address",
          "name": "newOwner",
          "type": "address"
        }
      ],
      "name": "transferOwnership",
      "outputs": [],
      "stateMutability": "nonpayable",
      "type": "function"
    }
  ],
  "bytecode": {
    "object": "0x60806040523480156200001157600080fd5b5060405162001c1738038062001c178339810160408190526200003491620001bb565b8686600062000044838262000302565b50600162000053828262000302565b505050620000706200006a620000a060201b60201c565b620000a4565b6000600755600862000083868262000302565b50600993909355600a91909155600b55600c5550620003ce915050565b3390565b600680546001600160a01b038381166001600160a01b0319831681179093556040519116919082907f8be0079c531659141344cd1fd0a4f28419497f9722a3daafe3b4186f6b6457e090600090a35050565b634e487b7160e01b600052604160045260246000fd5b600082601f8301126200011e57600080fd5b81516001600160401b03808211156200013b576200013b620000f6565b604051601f8301601f19908116603f01168101908282118183101715620001665762000166620000f6565b816040528381526020925086838588010111156200018357600080fd5b600091505b83821015620001a7578582018301518183018401529082019062000188565b600093810190920192909252949350505050565b600080600080600080600060e0888a031215620001d757600080fd5b87516001600160401b0380821115620001ef57600080fd5b620001fd8b838c016200010c565b985060208a01519150808211156200021457600080fd5b620002228b838c016200010c565b975060408a01519150808211156200023957600080fd5b50620002488a828b016200010c565b955050606088015193506080880151925060a0880151915060c0880151905092959891949750929550565b600181811c908216806200028857607f821691505b602082108103620002a957634e487b7160e01b600052602260045260246000fd5b50919050565b601f821115620002fd57600081815260208120601f850160051c81016020861015620002d85750805b601f850160051c820191505b81811015620002f957828155600101620002e4565b5050505b505050565b81516001600160401b038111156200031e576200031e620000f6565b62000336816200032f845462000273565b84620002af565b602080601f8311600181146200036e5760008415620003555750858301515b600019600386901b1c1916600185901b178555620002f9565b600085815260208120601f198616915b828110156200039f578886015182559484019460019091019084016200037e565b5085821015620003be5787850151600019600388901b60f8161c191681555b5050505050600190811b01905550565b61183980620003de6000396000f3fe608060405234801561001057600080fd5b50600436106102065760003560e01c806370a082311161011a578063a1f94330116100ad578063b88d4fde1161007c578063b88d4fde14610475578063c87b56dd14610483578063e6c3b1f614610496578063e985e9c5146104c6578063f2fde38b146104f457600080fd5b8063a1f9433014610423578063a22cb46514610446578063a5c42ef114610459578063b0db40191461046257600080fd5b80638cf7f4a4116100e95780638cf7f4a4146103e45780638da5cb5b146103f757806395d89b41146104085780639ecf00d41461041057600080fd5b806370a082311461039d578063715018a6146103b057806389e76ce7146103b85780638ac8c69e146103db57600080fd5b806320685db21161019d57806355f804b31161016c57806355f804b31461034357806358ee45e7146103565780635ff62bb9146103795780636352211e146103825780636c0360eb1461039557600080fd5b806320685db21461031457806323b872dd14610327578063291408191461033a57806342842e0e1461032757600080fd5b8063095ea7b3116101d9578063095ea7b31461029e5780631caaa487146102b15780631e67be5e146102da5780631f1ae2e2146102f157600080fd5b80630141ba921461020b57806301ffc9a71461022057806306fdde0314610248578063081812fc1461025d575b600080fd5b61021e6102193660046111b9565b610507565b005b61023361022e366004611253565b610642565b60405190151581526020015b60405180910390f35b610250610694565b60405161023f91906112a8565b61028661026b3660046112db565b6004602052600090815260409020546001600160a01b031681565b6040516001600160a01b03909116815260200161023f565b61021e6102ac36600461130b565b610722565b6102866102bf3660046112db565b600e602052600090815260409020546001600160a01b031681565b6102e3600a5481565b60405190815260200161023f565b6102336102ff366004611335565b60126020526000908152604090205460ff1681565b61021e610322366004611350565b610804565b61021e610335366004611382565b610820565b6102e3600b5481565b61021e6103513660046113d4565b610868565b610233610364366004611335565b600f6020526000908152604090205460ff1681565b6102e3600c5481565b6102866103903660046112db565b610880565b6102506108d7565b6102e36103ab366004611335565b6108e4565b61021e610947565b6102336103c6366004611335565b60106020526000908152604090205460ff1681565b6102e360095481565b61021e6103f23660046111b9565b61095b565b6006546001600160a01b0316610286565b610250610a7e565b61021e61041e3660046111b9565b610a8b565b610233610431366004611335565b60116020526000908152604090205460ff1681565b61021e610454366004611485565b610bb6565b6102e360075481565b61021e6104703660046111b9565b610c22565b61021e6103353660046114c1565b6102506104913660046112db565b610d42565b6104b96104a43660046112db565b600d6020526000908152604090205460ff1681565b60405161023f9190611546565b6102336104d436600461156e565b600560209081526000928352604080842090915290825290205460ff1681565b61021e610502366004611335565b610d9b565b6000828260405160200161051c9291906115a1565b6040516020818303038152906040528051906020012090506105428585600a5484610e14565b6105935760405162461bcd60e51b815260206004820152601e60248201527f596f7520617265206e6f7420612067656e6572616c20617474656e646565000060448201526064015b60405180910390fd5b3360009081526010602052604090205460ff16156105c35760405162461bcd60e51b815260040161058a906115b1565b6105cf33600754610e4e565b600780546000908152600e6020908152604080832080546001600160a01b0319163317905592548252600d90522080546001919060ff191682800217905550336000908152601060205260408120805460ff191660011790556007805491610636836115e8565b91905055505050505050565b60006301ffc9a760e01b6001600160e01b03198316148061067357506380ac58cd60e01b6001600160e01b03198316145b8061068e5750635b5e139f60e01b6001600160e01b03198316145b92915050565b600080546106a19061160f565b80601f01602080910402602001604051908101604052809291908181526020018280546106cd9061160f565b801561071a5780601f106106ef5761010080835404028352916020019161071a565b820191906000526020600020905b8154815290600101906020018083116106fd57829003601f168201915b505050505081565b6000818152600260205260409020546001600160a01b03163381148061076b57506001600160a01b038116600090815260056020908152604080832033845290915290205460ff165b6107a85760405162461bcd60e51b815260206004820152600e60248201526d1393d517d055551213d49256915160921b604482015260640161058a565b60008281526004602052604080822080546001600160a01b0319166001600160a01b0387811691821790925591518593918516917f8c5be1e5ebec7d5bd14f71427d1e84f3dd0314c0f7b2291e5b200ac8c7c3b92591a4505050565b61080c610f59565b600993909355600a91909155600b55600c55565b60405162461bcd60e51b815260206004820152601d60248201527f5468697320746f6b656e2063616e74206265207472616e736665726564000000604482015260640161058a565b610870610f59565b600861087c8282611698565b5050565b6000818152600260205260409020546001600160a01b0316806108d25760405162461bcd60e51b815260206004820152600a6024820152691393d517d3525395115160b21b604482015260640161058a565b919050565b600880546106a19061160f565b60006001600160a01b03821661092b5760405162461bcd60e51b815260206004820152600c60248201526b5a45524f5f4144445245535360a01b604482015260640161058a565b506001600160a01b031660009081526003602052604090205490565b61094f610f59565b6109596000610fb3565b565b600082826040516020016109709291906115a1565b6040516020818303038152906040528051906020012090506109968585600c5484610e14565b6109da5760405162461bcd60e51b81526020600482015260156024820152742cb7ba9030b932903737ba10309039b832b0b5b2b960591b604482015260640161058a565b3360009081526012602052604090205460ff1615610a0a5760405162461bcd60e51b815260040161058a906115b1565b610a1633600754610e4e565b600780546000908152600e6020908152604080832080546001600160a01b0319163317905592548252600d90522080546003919060ff19166001830217905550336000908152601260205260408120805460ff191660011790556007805491610636836115e8565b600180546106a19061160f565b60008282604051602001610aa09291906115a1565b604051602081830303815290604052805190602001209050610ac68585600b5484610e14565b610b125760405162461bcd60e51b815260206004820152601960248201527f596f7520617265206e6f742061207465616d206d656d62657200000000000000604482015260640161058a565b3360009081526011602052604090205460ff1615610b425760405162461bcd60e51b815260040161058a906115b1565b610b4e33600754610e4e565b600780546000908152600e6020908152604080832080546001600160a01b0319163317905592548252600d90522080546002919060ff19166001830217905550336000908152601160205260408120805460ff191660011790556007805491610636836115e8565b3360008181526005602090815260408083206001600160a01b03871680855290835292819020805460ff191686151590811790915590519081529192917f17307eab39ab6107e8899845ad3d59bd9653f200f220920489ca2b5937696c31910160405180910390a35050565b60008282604051602001610c379291906115a1565b604051602081830303815290604052805190602001209050610c5d858560095484610e14565b610ca05760405162461bcd60e51b81526020600482015260146024820152732cb7ba9030b932903737ba1030903430b1b5b2b960611b604482015260640161058a565b336000908152600f602052604090205460ff1615610cd05760405162461bcd60e51b815260040161058a906115b1565b610cdc33600754610e4e565b600780546000908152600e6020908152604080832080546001600160a01b0319163317905592548252600d9052908120805460ff19166001830217905550336000908152600f60205260408120805460ff191660011790556007805491610636836115e8565b6000818152600d6020526040902054606090600890610d749060ff166003811115610d6f57610d6f611530565b611005565b604051602001610d85929190611758565b6040516020818303038152906040529050919050565b610da3610f59565b6001600160a01b038116610e085760405162461bcd60e51b815260206004820152602660248201527f4f776e61626c653a206e6577206f776e657220697320746865207a65726f206160448201526564647265737360d01b606482015260840161058a565b610e1181610fb3565b50565b60008315610e46578360051b8501855b803580851160051b94855260209485185260406000209301818110610e245750505b501492915050565b6001600160a01b038216610e985760405162461bcd60e51b81526020600482015260116024820152701253959053125117d49150d25412515395607a1b604482015260640161058a565b6000818152600260205260409020546001600160a01b031615610eee5760405162461bcd60e51b815260206004820152600e60248201526d1053149150511657d3525395115160921b604482015260640161058a565b6001600160a01b038216600081815260036020908152604080832080546001019055848352600290915280822080546001600160a01b0319168417905551839291907fddf252ad1be2c89b69c2b068fc378daa952ba7f163c4a11628f55a4df523b3ef908290a45050565b6006546001600160a01b031633146109595760405162461bcd60e51b815260206004820181905260248201527f4f776e61626c653a2063616c6c6572206973206e6f7420746865206f776e6572604482015260640161058a565b600680546001600160a01b038381166001600160a01b0319831681179093556040519116919082907f8be0079c531659141344cd1fd0a4f28419497f9722a3daafe3b4186f6b6457e090600090a35050565b6060600061101283611098565b600101905060008167ffffffffffffffff811115611032576110326113be565b6040519080825280601f01601f19166020018201604052801561105c576020820181803683370190505b5090508181016020015b600019016f181899199a1a9b1b9c1cb0b131b232b360811b600a86061a8153600a850494508461106657509392505050565b60008072184f03e93ff9f4daa797ed6e38ed64bf6a1f0160401b83106110d75772184f03e93ff9f4daa797ed6e38ed64bf6a1f0160401b830492506040015b6d04ee2d6d415b85acef81000000008310611103576d04ee2d6d415b85acef8100000000830492506020015b662386f26fc10000831061112157662386f26fc10000830492506010015b6305f5e1008310611139576305f5e100830492506008015b612710831061114d57612710830492506004015b6064831061115f576064830492506002015b600a831061068e5760010192915050565b60008083601f84011261118257600080fd5b50813567ffffffffffffffff81111561119a57600080fd5b6020830191508360208285010111156111b257600080fd5b9250929050565b600080600080604085870312156111cf57600080fd5b843567ffffffffffffffff808211156111e757600080fd5b818701915087601f8301126111fb57600080fd5b81358181111561120a57600080fd5b8860208260051b850101111561121f57600080fd5b60209283019650945090860135908082111561123a57600080fd5b5061124787828801611170565b95989497509550505050565b60006020828403121561126557600080fd5b81356001600160e01b03198116811461127d57600080fd5b9392505050565b60005b8381101561129f578181015183820152602001611287565b50506000910152565b60208152600082518060208401526112c7816040850160208701611284565b601f01601f19169190910160400192915050565b6000602082840312156112ed57600080fd5b5035919050565b80356001600160a01b03811681146108d257600080fd5b6000806040838503121561131e57600080fd5b611327836112f4565b946020939093013593505050565b60006020828403121561134757600080fd5b61127d826112f4565b6000806000806080858703121561136657600080fd5b5050823594602084013594506040840135936060013592509050565b60008060006060848603121561139757600080fd5b6113a0846112f4565b92506113ae602085016112f4565b9150604084013590509250925092565b634e487b7160e01b600052604160045260246000fd5b6000602082840312156113e657600080fd5b813567ffffffffffffffff808211156113fe57600080fd5b818401915084601f83011261141257600080fd5b813581811115611424576114246113be565b604051601f8201601f19908116603f0116810190838211818310171561144c5761144c6113be565b8160405282815287602084870101111561146557600080fd5b826020860160208301376000928101602001929092525095945050505050565b6000806040838503121561149857600080fd5b6114a1836112f4565b9150602083013580151581146114b657600080fd5b809150509250929050565b6000806000806000608086880312156114d957600080fd5b6114e2866112f4565b94506114f0602087016112f4565b935060408601359250606086013567ffffffffffffffff81111561151357600080fd5b61151f88828901611170565b969995985093965092949392505050565b634e487b7160e01b600052602160045260246000fd5b602081016004831061156857634e487b7160e01b600052602160045260246000fd5b91905290565b6000806040838503121561158157600080fd5b61158a836112f4565b9150611598602084016112f4565b90509250929050565b8183823760009101908152919050565b6020808252601e908201527f596f7520616c726561647920636c61696d656420796f757220746f6b656e0000604082015260600190565b60006001820161160857634e487b7160e01b600052601160045260246000fd5b5060010190565b600181811c9082168061162357607f821691505b60208210810361164357634e487b7160e01b600052602260045260246000fd5b50919050565b601f82111561169357600081815260208120601f850160051c810160208610156116705750805b601f850160051c820191505b8181101561168f5782815560010161167c565b5050505b505050565b815167ffffffffffffffff8111156116b2576116b26113be565b6116c6816116c0845461160f565b84611649565b602080601f8311600181146116fb57600084156116e35750858301515b600019600386901b1c1916600185901b17855561168f565b600085815260208120601f198616915b8281101561172a5788860151825594840194600190910190840161170b565b50858210156117485787850151600019600388901b60f8161c191681555b5050505050600190811b01905550565b60008084546117668161160f565b6001828116801561177e5760018114611793576117c2565b60ff19841687528215158302870194506117c2565b8860005260208060002060005b858110156117b95781548a8201529084019082016117a0565b50505082870194505b50602f60f81b8452865192506117de8382860160208a01611284565b928201926117f581850164173539b7b760d91b9052565b50505060060194935050505056fea264697066735822122061e224b6555517062b17037c182deab0411139eb76b1d4414b94df9908c852af64736f6c63430008110033",
    "linkReferences": {}
  },
  "methodIdentifiers": {
    "approve(address,uint256)": "095ea7b3",
    "balanceOf(address)": "70a08231",
    "baseURI()": "6c0360eb",
    "generalClaimed(address)": "89e76ce7",
    "generalMerkleRoot()": "1e67be5e",
    "generalMint(bytes32[],string)": "0141ba92",
    "getApproved(uint256)": "081812fc",
    "hackerClaimed(address)": "58ee45e7",
    "hackerMerkleRoot()": "8ac8c69e",
    "hackerMint(bytes32[],string)": "b0db4019",
    "isApprovedForAll(address,address)": "e985e9c5",
    "name()": "06fdde03",
    "owner()": "8da5cb5b",
    "ownerOf(uint256)": "6352211e",
    "renounceOwnership()": "715018a6",
    "safeTransferFrom(address,address,uint256)": "42842e0e",
    "safeTransferFrom(address,address,uint256,bytes)": "b88d4fde",
    "setApprovalForAll(address,bool)": "a22cb465",
    "setBaseURI(string)": "55f804b3",
    "setMerkleRoots(bytes32,bytes32,bytes32,bytes32)": "20685db2",
    "speakerClaimed(address)": "1f1ae2e2",
    "speakerMerkleRoot()": "5ff62bb9",
    "speakerMint(bytes32[],string)": "8cf7f4a4",
    "supportsInterface(bytes4)": "01ffc9a7",
    "symbol()": "95d89b41",
    "teamClaimed(address)": "a1f94330",
    "teamMerkleRoot()": "29140819",
    "teamMint(bytes32[],string)": "9ecf00d4",
    "tokenID()": "a5c42ef1",
    "tokenOwner(uint256)": "1caaa487",
    "tokenType(uint256)": "e6c3b1f6",
    "tokenURI(uint256)": "c87b56dd",
    "transferFrom(address,address,uint256)": "23b872dd",
    "transferOwnership(address)": "f2fde38b"
  },
  "id": 21
}